{
  "_format": "hh-sol-artifact-1",
  "contractName": "MEVToken",
  "sourceName": "contracts/MevContract.sol",
  "abi": [
    {
      "inputs": [
        {
          "internalType": "uint256",
          "name": "initialSupply",
          "type": "uint256"
        }
      ],
      "stateMutability": "payable",
      "type": "constructor"
    },
    {
      "anonymous": false,
      "inputs": [
        {
          "indexed": true,
          "internalType": "address",
          "name": "owner",
          "type": "address"
        },
        {
          "indexed": true,
          "internalType": "address",
          "name": "spender",
          "type": "address"
        },
        {
          "indexed": false,
          "internalType": "uint256",
          "name": "value",
          "type": "uint256"
        }
      ],
      "name": "Approval",
      "type": "event"
    },
    {
      "anonymous": false,
      "inputs": [
        {
          "indexed": true,
          "internalType": "address",
          "name": "from",
          "type": "address"
        },
        {
          "indexed": true,
          "internalType": "address",
          "name": "to",
          "type": "address"
        },
        {
          "indexed": false,
          "internalType": "uint256",
          "name": "value",
          "type": "uint256"
        }
      ],
      "name": "Transfer",
      "type": "event"
    },
    {
      "stateMutability": "payable",
      "type": "fallback"
    },
    {
      "inputs": [],
      "name": "a",
      "outputs": [
        {
          "internalType": "uint256",
          "name": "",
          "type": "uint256"
        }
      ],
      "stateMutability": "view",
      "type": "function"
    },
    {
      "inputs": [
        {
          "internalType": "uint256",
          "name": "",
          "type": "uint256"
        }
      ],
      "name": "allCustomers",
      "outputs": [
        {
          "internalType": "address",
          "name": "",
          "type": "address"
        }
      ],
      "stateMutability": "view",
      "type": "function"
    },
    {
      "inputs": [
        {
          "internalType": "address",
          "name": "owner",
          "type": "address"
        },
        {
          "internalType": "address",
          "name": "spender",
          "type": "address"
        }
      ],
      "name": "allowance",
      "outputs": [
        {
          "internalType": "uint256",
          "name": "",
          "type": "uint256"
        }
      ],
      "stateMutability": "view",
      "type": "function"
    },
    {
      "inputs": [
        {
          "internalType": "address",
          "name": "spender",
          "type": "address"
        },
        {
          "internalType": "uint256",
          "name": "amount",
          "type": "uint256"
        }
      ],
      "name": "approve",
      "outputs": [
        {
          "internalType": "bool",
          "name": "",
          "type": "bool"
        }
      ],
      "stateMutability": "nonpayable",
      "type": "function"
    },
    {
      "inputs": [],
      "name": "b",
      "outputs": [
        {
          "internalType": "uint256",
          "name": "",
          "type": "uint256"
        }
      ],
      "stateMutability": "view",
      "type": "function"
    },
    {
      "inputs": [
        {
          "internalType": "address",
          "name": "account",
          "type": "address"
        }
      ],
      "name": "balanceOf",
      "outputs": [
        {
          "internalType": "uint256",
          "name": "",
          "type": "uint256"
        }
      ],
      "stateMutability": "view",
      "type": "function"
    },
    {
      "inputs": [],
      "name": "buyMev",
      "outputs": [],
      "stateMutability": "payable",
      "type": "function"
    },
    {
      "inputs": [
        {
          "internalType": "address",
          "name": "",
          "type": "address"
        }
      ],
      "name": "clientsGrade",
      "outputs": [
        {
          "internalType": "uint256",
          "name": "",
          "type": "uint256"
        }
      ],
      "stateMutability": "view",
      "type": "function"
    },
    {
      "inputs": [
        {
          "internalType": "address",
          "name": "",
          "type": "address"
        }
      ],
      "name": "clientsID",
      "outputs": [
        {
          "internalType": "uint256",
          "name": "",
          "type": "uint256"
        }
      ],
      "stateMutability": "view",
      "type": "function"
    },
    {
      "inputs": [],
      "name": "decimals",
      "outputs": [
        {
          "internalType": "uint8",
          "name": "",
          "type": "uint8"
        }
      ],
      "stateMutability": "view",
      "type": "function"
    },
    {
      "inputs": [
        {
          "internalType": "address",
          "name": "spender",
          "type": "address"
        },
        {
          "internalType": "uint256",
          "name": "subtractedValue",
          "type": "uint256"
        }
      ],
      "name": "decreaseAllowance",
      "outputs": [
        {
          "internalType": "bool",
          "name": "",
          "type": "bool"
        }
      ],
      "stateMutability": "nonpayable",
      "type": "function"
    },
    {
      "inputs": [
        {
          "internalType": "uint256",
          "name": "mevAmount",
          "type": "uint256"
        }
      ],
      "name": "distributeMev",
      "outputs": [],
      "stateMutability": "nonpayable",
      "type": "function"
    },
    {
      "inputs": [
        {
          "internalType": "address",
          "name": "spender",
          "type": "address"
        },
        {
          "internalType": "uint256",
          "name": "addedValue",
          "type": "uint256"
        }
      ],
      "name": "increaseAllowance",
      "outputs": [
        {
          "internalType": "bool",
          "name": "",
          "type": "bool"
        }
      ],
      "stateMutability": "nonpayable",
      "type": "function"
    },
    {
      "inputs": [],
      "name": "k",
      "outputs": [
        {
          "internalType": "uint256",
          "name": "",
          "type": "uint256"
        }
      ],
      "stateMutability": "view",
      "type": "function"
    },
    {
      "inputs": [],
      "name": "liquidityPool",
      "outputs": [
        {
          "internalType": "address payable",
          "name": "",
          "type": "address"
        }
      ],
      "stateMutability": "view",
      "type": "function"
    },
    {
      "inputs": [
        {
          "internalType": "uint256",
          "name": "mevAmount",
          "type": "uint256"
        },
        {
          "internalType": "uint256",
          "name": "time",
          "type": "uint256"
        }
      ],
      "name": "lockMev",
      "outputs": [],
      "stateMutability": "nonpayable",
      "type": "function"
    },
    {
      "inputs": [
        {
          "internalType": "address",
          "name": "",
          "type": "address"
        },
        {
          "internalType": "uint256",
          "name": "",
          "type": "uint256"
        }
      ],
      "name": "lockTime",
      "outputs": [
        {
          "internalType": "uint256",
          "name": "",
          "type": "uint256"
        }
      ],
      "stateMutability": "view",
      "type": "function"
    },
    {
      "inputs": [
        {
          "internalType": "address",
          "name": "",
          "type": "address"
        },
        {
          "internalType": "uint256",
          "name": "",
          "type": "uint256"
        }
      ],
      "name": "mevLocked",
      "outputs": [
        {
          "internalType": "uint256",
          "name": "",
          "type": "uint256"
        }
      ],
      "stateMutability": "view",
      "type": "function"
    },
    {
      "inputs": [],
      "name": "name",
      "outputs": [
        {
          "internalType": "string",
          "name": "",
          "type": "string"
        }
      ],
      "stateMutability": "view",
      "type": "function"
    },
    {
      "inputs": [
        {
          "internalType": "uint256",
          "name": "",
          "type": "uint256"
        }
      ],
      "name": "poolValues",
      "outputs": [
        {
          "internalType": "uint256",
          "name": "",
          "type": "uint256"
        }
      ],
      "stateMutability": "view",
      "type": "function"
    },
    {
      "inputs": [
        {
          "internalType": "address",
          "name": "_address",
          "type": "address"
        },
        {
          "internalType": "uint8",
          "name": "_grade",
          "type": "uint8"
        }
      ],
      "name": "setGrade",
      "outputs": [],
      "stateMutability": "nonpayable",
      "type": "function"
    },
    {
      "inputs": [],
      "name": "symbol",
      "outputs": [
        {
          "internalType": "string",
          "name": "",
          "type": "string"
        }
      ],
      "stateMutability": "view",
      "type": "function"
    },
    {
      "inputs": [],
      "name": "tokenOwner",
      "outputs": [
        {
          "internalType": "address",
          "name": "",
          "type": "address"
        }
      ],
      "stateMutability": "view",
      "type": "function"
    },
    {
      "inputs": [],
      "name": "totalSupply",
      "outputs": [
        {
          "internalType": "uint256",
          "name": "",
          "type": "uint256"
        }
      ],
      "stateMutability": "view",
      "type": "function"
    },
    {
      "inputs": [
        {
          "internalType": "address",
          "name": "to",
          "type": "address"
        },
        {
          "internalType": "uint256",
          "name": "amount",
          "type": "uint256"
        }
      ],
      "name": "transfer",
      "outputs": [
        {
          "internalType": "bool",
          "name": "",
          "type": "bool"
        }
      ],
      "stateMutability": "nonpayable",
      "type": "function"
    },
    {
      "inputs": [
        {
          "internalType": "address",
          "name": "from",
          "type": "address"
        },
        {
          "internalType": "address",
          "name": "to",
          "type": "address"
        },
        {
          "internalType": "uint256",
          "name": "amount",
          "type": "uint256"
        }
      ],
      "name": "transferFrom",
      "outputs": [
        {
          "internalType": "bool",
          "name": "",
          "type": "bool"
        }
      ],
      "stateMutability": "nonpayable",
      "type": "function"
    },
    {
      "stateMutability": "payable",
      "type": "receive"
    }
  ],
  "bytecode": "0x60806040526005600f5560196010556000601155670de0b6b3a76400006200002c6200017860201b60201c565b600a6200003a919062000552565b624c4b406200004a91906200068f565b6200005691906200068f565b601555604051620031da380380620031da83398181016040528101906200007e9190620003cb565b6040518060400160405280600381526020017f4d657600000000000000000000000000000000000000000000000000000000008152506040518060400160405280600381526020017f4d4556000000000000000000000000000000000000000000000000000000000081525081600390805190602001906200010292919062000304565b5080600490805190602001906200011b92919062000304565b50505033600560006101000a81548173ffffffffffffffffffffffffffffffffffffffff021916908373ffffffffffffffffffffffffffffffffffffffff1602179055506200017133826200018160201b60201c565b50620007c2565b60006012905090565b600073ffffffffffffffffffffffffffffffffffffffff168273ffffffffffffffffffffffffffffffffffffffff161415620001f4576040517f08c379a0000000000000000000000000000000000000000000000000000000008152600401620001eb906200044a565b60405180910390fd5b6200020860008383620002fa60201b60201c565b80600260008282546200021c91906200049a565b92505081905550806000808473ffffffffffffffffffffffffffffffffffffffff1673ffffffffffffffffffffffffffffffffffffffff16815260200190815260200160002060008282546200027391906200049a565b925050819055508173ffffffffffffffffffffffffffffffffffffffff16600073ffffffffffffffffffffffffffffffffffffffff167fddf252ad1be2c89b69c2b068fc378daa952ba7f163c4a11628f55a4df523b3ef83604051620002da91906200046c565b60405180910390a3620002f660008383620002ff60201b60201c565b5050565b505050565b505050565b828054620003129062000707565b90600052602060002090601f01602090048101928262000336576000855562000382565b82601f106200035157805160ff191683800117855562000382565b8280016001018555821562000382579182015b828111156200038157825182559160200191906001019062000364565b5b50905062000391919062000395565b5090565b5b80821115620003b057600081600090555060010162000396565b5090565b600081519050620003c581620007a8565b92915050565b600060208284031215620003de57600080fd5b6000620003ee84828501620003b4565b91505092915050565b600062000406601f8362000489565b91507f45524332303a206d696e7420746f20746865207a65726f2061646472657373006000830152602082019050919050565b6200044481620006f0565b82525050565b600060208201905081810360008301526200046581620003f7565b9050919050565b600060208201905062000483600083018462000439565b92915050565b600082825260208201905092915050565b6000620004a782620006f0565b9150620004b483620006f0565b9250827fffffffffffffffffffffffffffffffffffffffffffffffffffffffffffffffff03821115620004ec57620004eb6200073d565b5b828201905092915050565b6000808291508390505b600185111562000549578086048111156200052157620005206200073d565b5b6001851615620005315780820291505b808102905062000541856200079b565b945062000501565b94509492505050565b60006200055f82620006f0565b91506200056c83620006fa565b92506200059b7fffffffffffffffffffffffffffffffffffffffffffffffffffffffffffffffff8484620005a3565b905092915050565b600082620005b5576001905062000688565b81620005c5576000905062000688565b8160018114620005de5760028114620005e9576200061f565b600191505062000688565b60ff841115620005fe57620005fd6200073d565b5b8360020a9150848211156200061857620006176200073d565b5b5062000688565b5060208310610133831016604e8410600b8410161715620006595782820a9050838111156200065357620006526200073d565b5b62000688565b620006688484846001620004f7565b925090508184048111156200068257620006816200073d565b5b81810290505b9392505050565b60006200069c82620006f0565b9150620006a983620006f0565b9250817fffffffffffffffffffffffffffffffffffffffffffffffffffffffffffffffff0483118215151615620006e557620006e46200073d565b5b828202905092915050565b6000819050919050565b600060ff82169050919050565b600060028204905060018216806200072057607f821691505b602082108114156200073757620007366200076c565b5b50919050565b7f4e487b7100000000000000000000000000000000000000000000000000000000600052601160045260246000fd5b7f4e487b7100000000000000000000000000000000000000000000000000000000600052602260045260246000fd5b60008160011c9050919050565b620007b381620006f0565b8114620007bf57600080fd5b50565b612a0880620007d26000396000f3fe6080604052600436106101855760003560e01c8063665a11ca116100d1578063a3e676101161008a578063b4f40c6111610064578063b4f40c61146105f1578063d2db95ef1461061c578063dd62ed3e14610645578063eb6fbd201461068257610194565b8063a3e676101461054c578063a457c2d714610577578063a9059cbb146105b457610194565b8063665a11ca146104165780636a68deae1461044157806370a082311461047e57806392151d3b146104bb57806395d89b41146104e4578063a2dc5f111461050f57610194565b806327a403851161013e57806334af370f1161011857806334af370f1461033457806339509351146103715780633db0b72e146103ae5780634df7e3d0146103eb57610194565b806327a40385146102c2578063313ce567146102cc57806332437020146102f757610194565b806305417e441461019e57806306fdde03146101c7578063095ea7b3146101f25780630dbe671f1461022f57806318160ddd1461025a57806323b872dd1461028557610194565b36610194576101926106bf565b005b61019c6106bf565b005b3480156101aa57600080fd5b506101c560048036038101906101c09190611ea7565b610756565b005b3480156101d357600080fd5b506101dc6109f9565b6040516101e99190612491565b60405180910390f35b3480156101fe57600080fd5b5061021960048036038101906102149190611e2f565b610a8b565b6040516102269190612476565b60405180910390f35b34801561023b57600080fd5b50610244610aae565b6040516102519190612673565b60405180910390f35b34801561026657600080fd5b5061026f610ab4565b60405161027c9190612673565b60405180910390f35b34801561029157600080fd5b506102ac60048036038101906102a79190611de0565b610abe565b6040516102b99190612476565b60405180910390f35b6102ca6106bf565b005b3480156102d857600080fd5b506102e1610aed565b6040516102ee919061268e565b60405180910390f35b34801561030357600080fd5b5061031e60048036038101906103199190611d7b565b610af6565b60405161032b9190612673565b60405180910390f35b34801561034057600080fd5b5061035b60048036038101906103569190611e2f565b610b0e565b6040516103689190612673565b60405180910390f35b34801561037d57600080fd5b5061039860048036038101906103939190611e2f565b610b33565b6040516103a59190612476565b60405180910390f35b3480156103ba57600080fd5b506103d560048036038101906103d09190611d7b565b610bdd565b6040516103e29190612673565b60405180910390f35b3480156103f757600080fd5b50610400610bf5565b60405161040d9190612673565b60405180910390f35b34801561042257600080fd5b5061042b610bfb565b604051610438919061245b565b60405180910390f35b34801561044d57600080fd5b5061046860048036038101906104639190611ea7565b610c21565b6040516104759190612673565b60405180910390f35b34801561048a57600080fd5b506104a560048036038101906104a09190611d7b565b610c3c565b6040516104b29190612673565b60405180910390f35b3480156104c757600080fd5b506104e260048036038101906104dd9190611e6b565b610c84565b005b3480156104f057600080fd5b506104f9610d5f565b6040516105069190612491565b60405180910390f35b34801561051b57600080fd5b5061053660048036038101906105319190611e2f565b610df1565b6040516105439190612673565b60405180910390f35b34801561055857600080fd5b50610561610e16565b60405161056e9190612440565b60405180910390f35b34801561058357600080fd5b5061059e60048036038101906105999190611e2f565b610e3c565b6040516105ab9190612476565b60405180910390f35b3480156105c057600080fd5b506105db60048036038101906105d69190611e2f565b610f26565b6040516105e89190612476565b60405180910390f35b3480156105fd57600080fd5b50610606610f49565b6040516106139190612673565b60405180910390f35b34801561062857600080fd5b50610643600480360381019061063e9190611ed0565b610f4f565b005b34801561065157600080fd5b5061066c60048036038101906106679190611da4565b61125a565b6040516106799190612673565b60405180910390f35b34801561068e57600080fd5b506106a960048036038101906106a49190611ea7565b6112e1565b6040516106b69190612440565b60405180910390f35b60003411610702576040517f08c379a00000000000000000000000000000000000000000000000000000000081526004016106f9906124d3565b60405180910390fd5b600061c35034610712919061274c565b905061071e3382611314565b61074a600560009054906101000a900473ffffffffffffffffffffffffffffffffffffffff1682611474565b6107533361164b565b50565b600560009054906101000a900473ffffffffffffffffffffffffffffffffffffffff1673ffffffffffffffffffffffffffffffffffffffff163373ffffffffffffffffffffffffffffffffffffffff16146107e6576040517f08c379a00000000000000000000000000000000000000000000000000000000081526004016107dd90612613565b60405180910390fd5b60005b6011548110156109f55760006006600083815260200190815260200160002060009054906101000a900473ffffffffffffffffffffffffffffffffffffffff16905060005b600c60008373ffffffffffffffffffffffffffffffffffffffff1673ffffffffffffffffffffffffffffffffffffffff168152602001908152602001600020548110156109e05760006108d0600b60008573ffffffffffffffffffffffffffffffffffffffff1673ffffffffffffffffffffffffffffffffffffffff1681526020019081526020016000206000848152602001908152602001600020546117e0565b90506000600e54600d546010546108e7919061274c565b6108f1919061274c565b86600960008773ffffffffffffffffffffffffffffffffffffffff1673ffffffffffffffffffffffffffffffffffffffff1681526020019081526020016000206000868152602001908152602001600020548461094e919061274c565b610958919061274c565b610962919061271b565b905080600960008673ffffffffffffffffffffffffffffffffffffffff1673ffffffffffffffffffffffffffffffffffffffff168152602001908152602001600020600085815260200190815260200160002060008282546109c491906126c5565b92505081905550505080806109d8906128a6565b91505061082e565b505080806109ed906128a6565b9150506107e9565b5050565b606060038054610a0890612874565b80601f0160208091040260200160405190810160405280929190818152602001828054610a3490612874565b8015610a815780601f10610a5657610100808354040283529160200191610a81565b820191906000526020600020905b815481529060010190602001808311610a6457829003601f168201915b5050505050905090565b600080610a96611830565b9050610aa3818585611838565b600191505092915050565b60165481565b6000600254905090565b600080610ac9611830565b9050610ad6858285611a03565b610ae1858585611a8f565b60019150509392505050565b60006012905090565b60076020528060005260406000206000915090505481565b600b602052816000526040600020602052806000526040600020600091509150505481565b600080610b3e611830565b9050610bd2818585600160008673ffffffffffffffffffffffffffffffffffffffff1673ffffffffffffffffffffffffffffffffffffffff16815260200190815260200160002060008973ffffffffffffffffffffffffffffffffffffffff1673ffffffffffffffffffffffffffffffffffffffff16815260200190815260200160002054610bcd91906126c5565b611838565b600191505092915050565b60086020528060005260406000206000915090505481565b60175481565b601260009054906101000a900473ffffffffffffffffffffffffffffffffffffffff1681565b60138160028110610c3157600080fd5b016000915090505481565b60008060008373ffffffffffffffffffffffffffffffffffffffff1673ffffffffffffffffffffffffffffffffffffffff168152602001908152602001600020549050919050565b600560009054906101000a900473ffffffffffffffffffffffffffffffffffffffff1673ffffffffffffffffffffffffffffffffffffffff163373ffffffffffffffffffffffffffffffffffffffff1614610d14576040517f08c379a0000000000000000000000000000000000000000000000000000000008152600401610d0b90612613565b60405180910390fd5b8060ff16600860008473ffffffffffffffffffffffffffffffffffffffff1673ffffffffffffffffffffffffffffffffffffffff168152602001908152602001600020819055505050565b606060048054610d6e90612874565b80601f0160208091040260200160405190810160405280929190818152602001828054610d9a90612874565b8015610de75780601f10610dbc57610100808354040283529160200191610de7565b820191906000526020600020905b815481529060010190602001808311610dca57829003601f168201915b5050505050905090565b6009602052816000526040600020602052806000526040600020600091509150505481565b600560009054906101000a900473ffffffffffffffffffffffffffffffffffffffff1681565b600080610e47611830565b90506000600160008373ffffffffffffffffffffffffffffffffffffffff1673ffffffffffffffffffffffffffffffffffffffff16815260200190815260200160002060008673ffffffffffffffffffffffffffffffffffffffff1673ffffffffffffffffffffffffffffffffffffffff16815260200190815260200160002054905083811015610f0d576040517f08c379a0000000000000000000000000000000000000000000000000000000008152600401610f0490612633565b60405180910390fd5b610f1a8286868403611838565b60019250505092915050565b600080610f31611830565b9050610f3e818585611a8f565b600191505092915050565b60155481565b600033905082610f5e82610c3c565b1015610f9f576040517f08c379a0000000000000000000000000000000000000000000000000000000008152600401610f9690612593565b60405180910390fd5b610721821115610fe4576040517f08c379a0000000000000000000000000000000000000000000000000000000008152600401610fdb90612573565b60405180910390fd5b610fee8184611474565b82600960008373ffffffffffffffffffffffffffffffffffffffff1673ffffffffffffffffffffffffffffffffffffffff1681526020019081526020016000206000600c60008573ffffffffffffffffffffffffffffffffffffffff1673ffffffffffffffffffffffffffffffffffffffff1681526020019081526020016000205481526020019081526020016000208190555081600b60008373ffffffffffffffffffffffffffffffffffffffff1673ffffffffffffffffffffffffffffffffffffffff1681526020019081526020016000206000600c60008573ffffffffffffffffffffffffffffffffffffffff1673ffffffffffffffffffffffffffffffffffffffff168152602001908152602001600020548152602001908152602001600020819055506201518082611125919061274c565b4261113091906126c5565b600a60008373ffffffffffffffffffffffffffffffffffffffff1673ffffffffffffffffffffffffffffffffffffffff1681526020019081526020016000206000600c60008573ffffffffffffffffffffffffffffffffffffffff1673ffffffffffffffffffffffffffffffffffffffff16815260200190815260200160002054815260200190815260200160002081905550600c60008273ffffffffffffffffffffffffffffffffffffffff1673ffffffffffffffffffffffffffffffffffffffff1681526020019081526020016000206000815480929190611213906128a6565b919050555082600d600082825461122a91906126c5565b92505081905550818361123d919061274c565b600e600082825461124e91906126c5565b92505081905550505050565b6000600160008473ffffffffffffffffffffffffffffffffffffffff1673ffffffffffffffffffffffffffffffffffffffff16815260200190815260200160002060008373ffffffffffffffffffffffffffffffffffffffff1673ffffffffffffffffffffffffffffffffffffffff16815260200190815260200160002054905092915050565b60066020528060005260406000206000915054906101000a900473ffffffffffffffffffffffffffffffffffffffff1681565b600073ffffffffffffffffffffffffffffffffffffffff168273ffffffffffffffffffffffffffffffffffffffff161415611384576040517f08c379a000000000000000000000000000000000000000000000000000000000815260040161137b90612653565b60405180910390fd5b61139060008383611ab1565b80600260008282546113a291906126c5565b92505081905550806000808473ffffffffffffffffffffffffffffffffffffffff1673ffffffffffffffffffffffffffffffffffffffff16815260200190815260200160002060008282546113f791906126c5565b925050819055508173ffffffffffffffffffffffffffffffffffffffff16600073ffffffffffffffffffffffffffffffffffffffff167fddf252ad1be2c89b69c2b068fc378daa952ba7f163c4a11628f55a4df523b3ef8360405161145c9190612673565b60405180910390a361147060008383611ab6565b5050565b600073ffffffffffffffffffffffffffffffffffffffff168273ffffffffffffffffffffffffffffffffffffffff1614156114e4576040517f08c379a00000000000000000000000000000000000000000000000000000000081526004016114db906125b3565b60405180910390fd5b6114f082600083611ab1565b60008060008473ffffffffffffffffffffffffffffffffffffffff1673ffffffffffffffffffffffffffffffffffffffff16815260200190815260200160002054905081811015611576576040517f08c379a000000000000000000000000000000000000000000000000000000000815260040161156d906124f3565b60405180910390fd5b8181036000808573ffffffffffffffffffffffffffffffffffffffff1673ffffffffffffffffffffffffffffffffffffffff1681526020019081526020016000208190555081600260008282546115cd91906127a6565b92505081905550600073ffffffffffffffffffffffffffffffffffffffff168373ffffffffffffffffffffffffffffffffffffffff167fddf252ad1be2c89b69c2b068fc378daa952ba7f163c4a11628f55a4df523b3ef846040516116329190612673565b60405180910390a361164683600084611ab6565b505050565b6000600760008373ffffffffffffffffffffffffffffffffffffffff1673ffffffffffffffffffffffffffffffffffffffff168152602001908152602001600020541480156116e85750600560009054906101000a900473ffffffffffffffffffffffffffffffffffffffff1673ffffffffffffffffffffffffffffffffffffffff168173ffffffffffffffffffffffffffffffffffffffff1614155b156117dd57601154600760008373ffffffffffffffffffffffffffffffffffffffff1673ffffffffffffffffffffffffffffffffffffffff168152602001908152602001600020819055508060066000600760008573ffffffffffffffffffffffffffffffffffffffff1673ffffffffffffffffffffffffffffffffffffffff16815260200190815260200160002054815260200190815260200160002060006101000a81548173ffffffffffffffffffffffffffffffffffffffff021916908373ffffffffffffffffffffffffffffffffffffffff160217905550601160008154809291906117d7906128a6565b91905055505b50565b600080600d54600f546010546117f691906127a6565b611800919061274c565b9050600e54600f54611812919061274c565b838261181e919061274c565b61182891906126c5565b915050919050565b600033905090565b600073ffffffffffffffffffffffffffffffffffffffff168373ffffffffffffffffffffffffffffffffffffffff1614156118a8576040517f08c379a000000000000000000000000000000000000000000000000000000000815260040161189f906125f3565b60405180910390fd5b600073ffffffffffffffffffffffffffffffffffffffff168273ffffffffffffffffffffffffffffffffffffffff161415611918576040517f08c379a000000000000000000000000000000000000000000000000000000000815260040161190f90612513565b60405180910390fd5b80600160008573ffffffffffffffffffffffffffffffffffffffff1673ffffffffffffffffffffffffffffffffffffffff16815260200190815260200160002060008473ffffffffffffffffffffffffffffffffffffffff1673ffffffffffffffffffffffffffffffffffffffff168152602001908152602001600020819055508173ffffffffffffffffffffffffffffffffffffffff168373ffffffffffffffffffffffffffffffffffffffff167f8c5be1e5ebec7d5bd14f71427d1e84f3dd0314c0f7b2291e5b200ac8c7c3b925836040516119f69190612673565b60405180910390a3505050565b6000611a0f848461125a565b90507fffffffffffffffffffffffffffffffffffffffffffffffffffffffffffffffff8114611a895781811015611a7b576040517f08c379a0000000000000000000000000000000000000000000000000000000008152600401611a7290612533565b60405180910390fd5b611a888484848403611838565b5b50505050565b611a9a838383611abb565b611aa33361164b565b611aac8261164b565b505050565b505050565b505050565b600073ffffffffffffffffffffffffffffffffffffffff168373ffffffffffffffffffffffffffffffffffffffff161415611b2b576040517f08c379a0000000000000000000000000000000000000000000000000000000008152600401611b22906125d3565b60405180910390fd5b600073ffffffffffffffffffffffffffffffffffffffff168273ffffffffffffffffffffffffffffffffffffffff161415611b9b576040517f08c379a0000000000000000000000000000000000000000000000000000000008152600401611b92906124b3565b60405180910390fd5b611ba6838383611ab1565b60008060008573ffffffffffffffffffffffffffffffffffffffff1673ffffffffffffffffffffffffffffffffffffffff16815260200190815260200160002054905081811015611c2c576040517f08c379a0000000000000000000000000000000000000000000000000000000008152600401611c2390612553565b60405180910390fd5b8181036000808673ffffffffffffffffffffffffffffffffffffffff1673ffffffffffffffffffffffffffffffffffffffff16815260200190815260200160002081905550816000808573ffffffffffffffffffffffffffffffffffffffff1673ffffffffffffffffffffffffffffffffffffffff1681526020019081526020016000206000828254611cbf91906126c5565b925050819055508273ffffffffffffffffffffffffffffffffffffffff168473ffffffffffffffffffffffffffffffffffffffff167fddf252ad1be2c89b69c2b068fc378daa952ba7f163c4a11628f55a4df523b3ef84604051611d239190612673565b60405180910390a3611d36848484611ab6565b50505050565b600081359050611d4b8161298d565b92915050565b600081359050611d60816129a4565b92915050565b600081359050611d75816129bb565b92915050565b600060208284031215611d8d57600080fd5b6000611d9b84828501611d3c565b91505092915050565b60008060408385031215611db757600080fd5b6000611dc585828601611d3c565b9250506020611dd685828601611d3c565b9150509250929050565b600080600060608486031215611df557600080fd5b6000611e0386828701611d3c565b9350506020611e1486828701611d3c565b9250506040611e2586828701611d51565b9150509250925092565b60008060408385031215611e4257600080fd5b6000611e5085828601611d3c565b9250506020611e6185828601611d51565b9150509250929050565b60008060408385031215611e7e57600080fd5b6000611e8c85828601611d3c565b9250506020611e9d85828601611d66565b9150509250929050565b600060208284031215611eb957600080fd5b6000611ec784828501611d51565b91505092915050565b60008060408385031215611ee357600080fd5b6000611ef185828601611d51565b9250506020611f0285828601611d51565b9150509250929050565b611f15816127ec565b82525050565b611f24816127da565b82525050565b611f33816127fe565b82525050565b6000611f44826126a9565b611f4e81856126b4565b9350611f5e818560208601612841565b611f678161297c565b840191505092915050565b6000611f7f6023836126b4565b91507f45524332303a207472616e7366657220746f20746865207a65726f206164647260008301527f65737300000000000000000000000000000000000000000000000000000000006020830152604082019050919050565b6000611fe5601d836126b4565b91507f416d6f756e74206d757374206265206d6f7265207468616e207a65726f0000006000830152602082019050919050565b60006120256022836126b4565b91507f45524332303a206275726e20616d6f756e7420657863656564732062616c616e60008301527f63650000000000000000000000000000000000000000000000000000000000006020830152604082019050919050565b600061208b6022836126b4565b91507f45524332303a20617070726f766520746f20746865207a65726f20616464726560008301527f73730000000000000000000000000000000000000000000000000000000000006020830152604082019050919050565b60006120f1601d836126b4565b91507f45524332303a20696e73756666696369656e7420616c6c6f77616e63650000006000830152602082019050919050565b60006121316026836126b4565b91507f45524332303a207472616e7366657220616d6f756e742065786365656473206260008301527f616c616e636500000000000000000000000000000000000000000000000000006020830152604082019050919050565b60006121976019836126b4565b91507f43616e6e6f74204c6f636b20666f722074686973206c6f6e67000000000000006000830152602082019050919050565b60006121d76015836126b4565b91507f4e6f7420456e6f75676874204d65762066756e647300000000000000000000006000830152602082019050919050565b60006122176021836126b4565b91507f45524332303a206275726e2066726f6d20746865207a65726f2061646472657360008301527f73000000000000000000000000000000000000000000000000000000000000006020830152604082019050919050565b600061227d6025836126b4565b91507f45524332303a207472616e736665722066726f6d20746865207a65726f20616460008301527f64726573730000000000000000000000000000000000000000000000000000006020830152604082019050919050565b60006122e36024836126b4565b91507f45524332303a20617070726f76652066726f6d20746865207a65726f2061646460008301527f72657373000000000000000000000000000000000000000000000000000000006020830152604082019050919050565b60006123496011836126b4565b91507f4572726f723a204e6f74204f776e6572210000000000000000000000000000006000830152602082019050919050565b60006123896025836126b4565b91507f45524332303a2064656372656173656420616c6c6f77616e63652062656c6f7760008301527f207a65726f0000000000000000000000000000000000000000000000000000006020830152604082019050919050565b60006123ef601f836126b4565b91507f45524332303a206d696e7420746f20746865207a65726f2061646472657373006000830152602082019050919050565b61242b8161282a565b82525050565b61243a81612834565b82525050565b60006020820190506124556000830184611f1b565b92915050565b60006020820190506124706000830184611f0c565b92915050565b600060208201905061248b6000830184611f2a565b92915050565b600060208201905081810360008301526124ab8184611f39565b905092915050565b600060208201905081810360008301526124cc81611f72565b9050919050565b600060208201905081810360008301526124ec81611fd8565b9050919050565b6000602082019050818103600083015261250c81612018565b9050919050565b6000602082019050818103600083015261252c8161207e565b9050919050565b6000602082019050818103600083015261254c816120e4565b9050919050565b6000602082019050818103600083015261256c81612124565b9050919050565b6000602082019050818103600083015261258c8161218a565b9050919050565b600060208201905081810360008301526125ac816121ca565b9050919050565b600060208201905081810360008301526125cc8161220a565b9050919050565b600060208201905081810360008301526125ec81612270565b9050919050565b6000602082019050818103600083015261260c816122d6565b9050919050565b6000602082019050818103600083015261262c8161233c565b9050919050565b6000602082019050818103600083015261264c8161237c565b9050919050565b6000602082019050818103600083015261266c816123e2565b9050919050565b60006020820190506126886000830184612422565b92915050565b60006020820190506126a36000830184612431565b92915050565b600081519050919050565b600082825260208201905092915050565b60006126d08261282a565b91506126db8361282a565b9250827fffffffffffffffffffffffffffffffffffffffffffffffffffffffffffffffff038211156127105761270f6128ef565b5b828201905092915050565b60006127268261282a565b91506127318361282a565b9250826127415761274061291e565b5b828204905092915050565b60006127578261282a565b91506127628361282a565b9250817fffffffffffffffffffffffffffffffffffffffffffffffffffffffffffffffff048311821515161561279b5761279a6128ef565b5b828202905092915050565b60006127b18261282a565b91506127bc8361282a565b9250828210156127cf576127ce6128ef565b5b828203905092915050565b60006127e58261280a565b9050919050565b60006127f78261280a565b9050919050565b60008115159050919050565b600073ffffffffffffffffffffffffffffffffffffffff82169050919050565b6000819050919050565b600060ff82169050919050565b60005b8381101561285f578082015181840152602081019050612844565b8381111561286e576000848401525b50505050565b6000600282049050600182168061288c57607f821691505b602082108114156128a05761289f61294d565b5b50919050565b60006128b18261282a565b91507fffffffffffffffffffffffffffffffffffffffffffffffffffffffffffffffff8214156128e4576128e36128ef565b5b600182019050919050565b7f4e487b7100000000000000000000000000000000000000000000000000000000600052601160045260246000fd5b7f4e487b7100000000000000000000000000000000000000000000000000000000600052601260045260246000fd5b7f4e487b7100000000000000000000000000000000000000000000000000000000600052602260045260246000fd5b6000601f19601f8301169050919050565b612996816127da565b81146129a157600080fd5b50565b6129ad8161282a565b81146129b857600080fd5b50565b6129c481612834565b81146129cf57600080fd5b5056fea2646970667358221220e812963e49f7ce22f841a8fee69b14a3f0a4ca3cb13e9dcbb5895ea42bc3f37264736f6c63430008000033",
  "linkReferences": {},
  "deployedLinkReferences": {}
}